:1000000012C02CC053C02AC029C028C027C026C097
:1000100025C025C023C0EAC015C120C01FC01EC016
:100020001DC01CC01BC011241FBECFE5D4E0DEBF25
:10003000CDBF11E1A0E0B1E1E6EFF3E002C0059031
:100040000D92A438B107D9F721E1A4E8B1E101C0CC
:100050001D92AD3CB207E1F776D1CBC1D1CF1F9253
:100060000F920FB60F9211245F936F937F938F932C
:100070009F93AF93BF9380918411909185116CE40D
:100080007EE06CD170938711609386111092851178
:1000900010928411BF91AF919F918F917F916F9139
:1000A0005F910F900FBE0F901F9018951F920F92A7
:1000B0000FB60F9211248F939F938091841190918A
:1000C0008511019690938511809384119F918F9152
:1000D0000F900FBE0F901F90189584B3876084BB5C
:1000E000A5988A988F9AB89A87E690E0D0D07894AD
:1000F0008BB780688BBF85B7846085BF85B7886004
:1001000085BF109285111092841110928711109260
:10011000861183B7856083BF12BE89B7816089BFAE
:10012000979A85B3887F85BB84E690E0EFE3FCE98E
:100130003197F1F700C000000197C1F785B38660E1
:1001400085BBC098C09A089583B385FB882780F942
:10015000089580B382FB882780F9089545B321E094
:1001600030E0662351F0B90102C0660F771F8A950F
:10017000E2F7CB018095842308C0B90102C0660F65
:10018000771F8A95E2F7CB01842B85BB08958823DE
:1001900011F0979A0895979808951F93CF93DF933E
:1001A00000D000D0CDB7DEB7182F80E091E1B2D0FB
:1001B00084E291E1AFD088E491E1ACD04AE0BE01A5
:1001C0006F5F7F4F812F90E0DDD08DE691E1A2D06F
:1001D000CE0101969FD081E891E19CD00F900F90C5
:1001E0000F900F90DF91CF911F9108951F920F9262
:1001F0000FB60F9211242F938F939F93EF93FF933A
:100200008BB19CB18871E0918A11EF5FEF71209101
:100210008911E21739F0E0938A11F0E0E357FE4EBE
:10022000908301C082E090918811892B809388117E
:10023000FF91EF919F918F912F910F900FBE0F9093
:100240001F9018951F920F920FB60F9211248F9343
:100250009F93EF93FF9390918C1180918B1198173E
:1002600061F0E0918B11EF5FEF71E0938B11F0E0A3
:10027000E355FE4E80818CB901C05598FF91EF91F6
:100280009F918F910F900FBE0F901F901895109215
:100290008C1110928B1110928A111092891197FF74
:1002A00002C022E02BB9907890BD89B988E98AB95B
:1002B00086E880BD089590918A11809189119817E0
:1002C000A9F0909189119F5F9F71E92FF0E0E357AA
:1002D000FE4E20818091881190938911109288118F
:1002E00090E0982F8827820F911D089580E091E07B
:1002F000089590918C119F5F9F7120918B1192179F
:10030000E1F3E92FF0E0E355FE4E808390938C11EA
:10031000559A0895CF93DF93EC018991882311F0CA
:10032000E8DFFBCFDF91CF910895CF93DF93FC01FE
:100330008491EF012196882319F0DBDFFE01F8CFCD
:10034000DF91CF910895C9DEFFDE8823E9F3A998F4
:1003500085E523DFF9DE8823E9F3FACFAA1BBB1B6F
:1003600051E107C0AA1FBB1FA617B70710F0A61BB5
:10037000B70B881F991F5A95A9F780959095BC01D6
:10038000CD010895BB274A3031F4992322F4BDE210
:10039000909581959F4F01C0BB27E62FF72F5527DA
:1003A000AA27880F991FAA1FA41710F0A41B8395D2
:1003B0005051B9F7A05DAA3308F0A95DA193009749
:1003C00079F7B111B1931192862F972F00C0A82F02
:1003D000B92FE82FF92F672F71917723E1F7329723
:1003E00004C07C916D9370836291AE17BF07C8F310
:0603F0000895F894FFCF10
:1003F6000D232323232323232323232323232323DD
:1004060023232323232323232323232323232323B6
:1004160023230A000D232057656C636F6D652074D6
:100426006F2051534436374C432053657475702002
:100436004D6F646520230A000D23232323232323E2
:100446002323232323232323232323232323232376
:10045600232323232323232323230A0A000D53487C
:100466004946542D54494D4520286D73293A205B41
:04047600005D000025
:00000001FF
