:1000000012C021C020C01FC01EC010C1A7C140C166
:100010001AC019C018C017C016C015C014C013C02C
:1000200012C011C010C011241FBECFE5D4E0DEBF46
:10003000CDBF20E0A0E6B0E001C01D92A736B20718
:10004000E1F7B8D12CC2DCCF84B3876084BBA5981C
:100050008A988F9A979A85B3887F85BB84E690E0CB
:10006000EFE3FCE93197F1F700C000000197C1F719
:1000700085B3866085BBC098C09A089583B385FB1D
:10008000882780F9089580B382FB882780F9089536
:1000900045B321E030E0662351F0B90102C0660F9C
:1000A000771F8A95E2F7CB018095842308C0B901B8
:1000B00002C0660F771F8A95E2F7CB01842B85BBC0
:1000C000089595B321E030E001C0220F8A95EAF748
:1000D000292725BB0895882311F0979A08959798AA
:1000E0000895899A919A2FEF83EC99E021508040EE
:1000F0009040E1F700C0000091982FEF87E893E16E
:10010000215080409040E1F700C00000919A2FEF0D
:1001100087E893E1215080409040E1F700C0000063
:1001200091982FEF87E893E1215080409040E1F7CC
:1001300000C00000919A2FEF87E893E121508040A2
:100140009040E1F700C000009198089545B3A89A47
:10015000A99A20E030E090E0AA9828173907B4F473
:100160005FEF62E577E0515060407040E1F700C01A
:100170000000AA9A5FEF65EA7EE05150604070404F
:10018000E1F700C000002F5F3F4FE6CF8FEF93ED08
:1001900020E3815090402040E1F700C00000AA9A7F
:1001A00045BB089545B3A89AAA9A20E030E090E0B4
:1001B00028173907BCF4A9985FEF62E577E0515042
:1001C00060407040E1F700C00000A99A5FEF65EA67
:1001D0007EE0515060407040E1F700C000002F5FAA
:1001E0003F4FE6CF45BB0895CF93CFB7F8941FBCE0
:1001F00029E82EBD9C0140E050E060E074E284EF0D
:1002000090E02BD13BBD2ABDB898C09A89B78062D7
:1002100089BF82B3827082BB899A10926600109265
:10022000650088E388BFCFBFCF9108951F920F92DA
:100230000FB60F9211242F933F934F935F938F9399
:100240009F9386B597B52AB53BB5A90156954795B5
:10025000840F951F8217930710F0821B930B99BD93
:1002600088BD88E088BF89B7877D886089BF109284
:10027000640010926300109262009F918F915F91D1
:100280004F913F912F910F900FBE0F901F90189597
:100290001F920F920FB60F9211242F938F939F935B
:1002A00080916300909164009695879526B3211103
:1002B00001C09260209162002F5F2A30A9F480FD76
:1002C0000CC0811522E0920740F0A9989695879579
:1002D0008093600081E08093610089B7877D8062B0
:1002E00089BF80E288BF06C02093620090936400BB
:1002F000809363009F918F912F910F900FBE0F906D
:100300001F901895809161008823E1F3109261009D
:1003100080916000089580916100882329F01092F7
:1003200061008091600008958FEF08957894000037
:10033000F8942091650030916600232BB9F790E086
:10034000880F991F9660909366008093650089B727
:10035000806189BF80E188BF789408951F920F92D1
:100360000FB60F9211242F933F934F938F939F9328
:1003700080916500909166009C012095309520FF4A
:1003800002C0919A01C091982E3F3F4F19F429B7AE
:100390002F7E29BF96958795909366008093650080
:1003A0009F918F914F913F912F910F900FBE0F9082
:1003B0001F90189549DE62DE8823E9F392DE80EA19
:1003C00098E212DF78942FEF89EF90E0215080407F
:1003D0009040E1F700C00000A89A94DF8535D1F580
:1003E000A89890DFC82F8EDFD82F2FEF81EE94E0F2
:1003F000215080409040E1F700C0000082E496DF89
:100400008FE39CE90197F1F700C000008C2F8EDF8D
:100410009FEF29EF80E0915020408040E1F700C03D
:1004200000008D2F83DF9FEF29EF80E09150204067
:100430008040E1F700C000008C2F809577DF62DFFD
:10044000A898C83029F4D83019F48AE0ABDEB3CFCD
:100450008FE001C085E07ADEAECFA1E21A2EAA1BA2
:10046000BB1BFD010DC0AA1FBB1FEE1FFF1FA21764
:10047000B307E407F50720F0A21BB30BE40BF50B61
:10048000661F771F881F991F1A9469F760957095EA
:10049000809590959B01AC01BD01CF010895F89422
:0204A000FFCF8C
:00000001FF
