:1000000012C02CC063C02AC029C028C027C026C087
:1000100026C024C023C079C1A4C120C01FC01EC0F7
:100020001DC01CC01BC011241FBECFE5D4E0DEBF25
:10003000CDBF12E1A0E0B1E1EEE8F8E002C005902A
:100040000D92AC32B107D9F722E1ACE2B2E101C0C6
:100050001D92A637B207E1F705D217C4D1CF1F9280
:100060000F920FB60F9211242F933F934F935F93EC
:100070006F937F938F939F93AF93BF93EF93FF9370
:1000800060912D1270912E1280E090E0B8D220EC99
:1000900031EE44EE51E41AD386D27093301260935D
:1000A0002F1210922E1210922D12FF91EF91BF91EC
:1000B000AF919F918F917F916F915F914F913F9100
:1000C0002F910F900FBE0F901F9018951F920F92B7
:1000D0000FB60F9211248F939F9380912D129091C0
:1000E0002E12019690932E1280932D129F918F9134
:1000F0000F900FBE0F901F90189584B3876084BB3C
:10010000A5988A988F9AB89A87E690E04FD178940C
:100110008BB780688BBF85B7846085BF85B78860E3
:1001200085BF10922E1210922D1210923012109242
:100130002F128EB584608EBD1DBC1CBC89B7846037
:1001400089BF979A85B3887F85BB84E690E0EFE30B
:10015000FCE93197F1F700C000000197C1F785B3C2
:10016000866085BBC098C09A81E090E079D391E029
:10017000811101C090E090932C1282E090E070D346
:1001800080930211A89AA99AAA9A089583B385FB2D
:10019000882780F9089580B382FB882780F9089525
:1001A00045B321E030E0662351F0B90102C0660F8B
:1001B000771F8A95E2F7CB018095842308C0B901A7
:1001C00002C0660F771F8A95E2F7CB01842B85BBAF
:1001D000089595B321E030E001C0220F8A95EAF737
:1001E000292725BB0895882311F0979A0895979899
:1001F000089584E091E11DD188E291E11AD18CE467
:1002000091E117D181E791E114C1CF93DF9300D041
:1002100000D0CDB7DEB74AE0BE016F5F7F4F90E000
:10022000E8D289E891E105D1CE01019602D18DE9AC
:1002300091E1FFD00F900F900F900F90DF91CF9131
:100240000895CF93DF93CDB7DEB760970FB6F894DC
:10025000DEBF0FBECDBF4AE0BE016F5F7F4FC9D288
:1002600080EA91E1E6D0CE010196E3D08DE991E1FB
:10027000E0D060960FB6F894DEBF0FBECDBFDF9121
:10028000CF910895CF93DF93EC0187EA91E1D1D02C
:10029000CE01CFD08FE691E1DF91CF91CAC09AD045
:1002A00021E0803F910509F020E0822F0895EF9230
:1002B000FF920F931F93CF93DF938C01EB018FE39A
:1002C0009CE90197F1F700C0000084D07C0182D046
:1002D000970122272115310541F49C012227232B68
:1002E00061F4F801E082888306C02115314029F4C9
:1002F000F8011082188281E001C080E0DF91CF9187
:100300001F910F91FF90EF9008951F920F920FB6DB
:100310000F9211242F938F939F93EF93FF938BB1A1
:100320009CB18871E0913312EF5FEF71209132122E
:10033000E21739F0E0933312F0E0EA5CFD4E90836F
:1003400001C082E090913112892B80933112FF918C
:10035000EF919F918F912F910F900FBE0F901F9053
:1003600018951F920F920FB60F9211248F939F939F
:10037000EF93FF939091351280913412981761F0AA
:10038000E0913412EF5FEF71E0933412F0E0EA5A3B
:10039000FD4E80818CB901C05598FF91EF919F91DE
:1003A0008F910F900FBE0F901F90189510923512DD
:1003B00010923412109233121092321297FF02C030
:1003C00022E02BB9907890BD89B988E98AB986E88E
:1003D00080BD089590913312809132129817A9F040
:1003E000909132129F5F9F71E92FF0E0EA5CFD4E21
:1003F000208180913112909332121092311290E04C
:10040000982F8827820F911D089580E091E008952C
:10041000909135129F5F9F71209134129217E1F3F2
:10042000E92FF0E0EA5AFD4E808390933512559AF9
:100430000895CF93DF93EC018991882311F0E8DFD1
:10044000FBCFDF91CF910895CF93DF93FC0184918F
:10045000EF012196882319F0DBDFFE01F8CFDF9151
:10046000CF910895CF93DF9300D0CDB7DEB745DEAF
:1004700011E015DF882309F463C010930311A998D4
:10048000B8DE80910311882309F459C0BE016F5F63
:100490007F4FCE0102960BDF882309F44CC08A817E
:1004A000883069F168F48230B9F08430F9F0813035
:1004B00041F78FEA91E1BDDF10922C1260E012C08B
:1004C000803209F18F3F89F18031D9F680912F1266
:1004D00090913012B6DED5CF8BEC91E1AADF10936C
:1004E0002C1261E081E090E0C3D1CBCF69816093B1
:1004F000021182E090E0BCD186EE91E19ADF80911A
:10050000021183DEBECF42DE8111BBCF80912F125C
:100510009091301296DE2FEF83ED90E321508040D2
:100520009040E1F700C00000EECF8AEF91E181DF5B
:1005300010920311A6CF8EE092E1A4DEA2CFA99A79
:1005400080912C12882329F026DE811107C001C07A
:10055000A89860912C1280E023DE8BCFA89A80E0CF
:1005600042DE80E090E02091021130E08217930794
:1005700040F4EFE9FFE03197F1F700C00000019689
:10058000F2CF979A80E090E0209100113091011114
:1005900082179307E8F6EFE9FFE03197F1F700C023
:1005A00000000196F1CF70D088F09F5790F0B92FDE
:1005B0009927B751A0F0D1F0660F771F881F991FB8
:1005C0001AF0BA95C9F712C0B13081F077D0B1E016
:1005D000089574C0672F782F8827B85F39F0B93F26
:1005E000CCF3869577956795B395D9F73EF49095BA
:1005F0008095709561957F4F8F4F9F4F0895E89438
:1006000009C097FB3EF490958095709561957F4F5A
:100610008F4F9F4F9923A9F0F92F96E9BB27939508
:10062000F695879577956795B795F111F8CFFAF418
:10063000BB0F11F460FF1BC06F5F7F4F8F4F9F4F49
:1006400016C0882311F096E911C0772321F09EE8A7
:10065000872F762F05C0662371F096E8862F70E00D
:1006600060E02AF09A95660F771F881FDAF7880FE7
:100670009695879597F9089557FD9058440F551F03
:1006800059F05F3F71F04795880F97FB991F61F014
:100690009F3F79F087950895121613061406551F8B
:1006A000F2CF4695F1DF08C0161617061806991FF7
:1006B000F1CF86957105610508940895E894BB27EC
:1006C00066277727862F972F97F908950AD080C03D
:1006D00071D028F076D018F0952309F062C067C079
:1006E000EECFCADFA8F39923D9F35523C9F3950FA9
:1006F00050E0551FAA27EE27FF27BB2700240894A8
:10070000679520F4E20FF31FB41F0A1E220F331F58
:10071000441FAA1F6695A9F7779530F4F30FB41F0D
:100720000A1E121E08F46395330F441FAA1F221FCE
:10073000769599F7879520F4B40F0A1E121E631F51
:10074000440FAA1F221F331F8695A9F7862F712DEC
:10075000602D11249F5750408AF0E1F088234AF021
:10076000EE0FFF1FBB1F661F771F881F9150504061
:10077000A9F79E3F510570F014C0A1CF5F3FECF385
:10078000983EDCF3869577956795B795F795E7954D
:100790009F5FC1F7FE2B880F911D9695879597F95E
:1007A000089597F99F6780E870E060E008959FEFF3
:1007B00080EC089500240A941616170618060906F8
:1007C000089500240A9412161306140605060895C7
:1007D000092E0394000C11F4882352F0BB0F40F44F
:1007E000BF2B11F460FF04C06F5F7F4F8F4F9F4F8F
:1007F0000895BB274A3031F4992322F4BDE2909545
:1008000081959F4F01C0BB27E62FF72F5527AA27B9
:10081000880F991FAA1FA41710F0A41B839550518D
:10082000B9F7A05DAA3308F0A95DA193009779F705
:10083000B111B1931192862F972F00C0A82FB92F15
:10084000E82FF92F672F71917723E1F7329704C0D2
:100850007C916D9370836291AE17BF07C8F30895C2
:10086000E199FECF9FBB8EBBE09A99278DB3089587
:10087000262FE199FECF9FBB8EBB2DBB0FB6F89400
:0E088000E29AE19A0FBE01960895F894FFCF18
:10088E00E80355010D23232323232323232323238B
:10089E00232323232323232323232323232323231A
:1008AE002323232323230A000D232057656C636F14
:1008BE006D6520746F2051534436374C4320536579
:1008CE00747570204D6F646520230A000D23232359
:1008DE0023232323232323232323232323232323DA
:1008EE0023232323232323232323232323230A0AFC
:1008FE00000D706C6561736520656E7465722063A2
:10090E006F6D6D616E643A0A000D53484946542D61
:10091E0054494D4520286D73293A205B005D0A002D
:10092E000D52504D205B004572726F723A20000DD1
:10093E00717569636B736869667465722064697337
:10094E0061626C6564202E2E2E0A000D717569632E
:10095E006B7368696674657220656E61626C65643E
:10096E00202E2E2E0A000D736869667474696D65EB
:10097E00206368616E6765640A000D6C6561766957
:10098E006E67207365747570206D6F6465004572B7
:10099E00726F72207768696C65207265636569761F
:0C09AE00696E6720636F6D6D616E640000
:00000001FF
