:1000000012C02CC0CAC02AC029C028C027C026C020
:100010008BC024C023C078C1A3C120C01FC01EC094
:100020001DC01CC01BC011241FBECFE5D4E0DEBF25
:10003000CDBF12E1A0E0B1E1EEE4F8E002C005902E
:100040000D92AA32B107D9F722E1AAE2B2E101C0CA
:100050001D92A337B207E1F704D2F7C3D1CF84B31F
:10006000876084BBA5988A988F9AB89A87E690E0B3
:100070009CD178948BB780688BBF85B7846085BF2F
:1000800085B7886085BF10922B1210922A121092A9
:100090002D1210922C128EB584608EBD1DBC1CBC1E
:1000A00089B7846089BF979A85B3887F85BB84E6CA
:1000B00090E0EFE3FCE93197F1F700C00000019711
:1000C000C1F785B3866085BBC098C09A089583B395
:1000D00085FB882780F9089580B382FB882780F903
:1000E000089545B321E030E0662351F0B90102C024
:1000F000660F771F8A95E2F7CB018095842308C0AD
:10010000B90102C0660F771F8A95E2F7CB01842BF5
:1001100085BB089595B321E030E001C0220F8A9598
:10012000EAF7292725BB08951F920F920FB60F9269
:1001300011242F933F934F935F936F937F938F93EC
:100140009F93AF93BF93EF93FF9381E0E3DF6091C1
:100150002A1270912B1280E090E046D220EC31EE12
:1001600044EE51E4A8D214D270932D1260932C1255
:1001700010922B1210922A12FF91EF91BF91AF9122
:100180009F918F917F916F915F914F913F912F91AF
:100190000F900FBE0F901F9018951F920F920FB6E1
:1001A0000F9211242F933F934F935F936F937F93FD
:1001B0008F939F93AF93BF93EF93FF9380912A12F6
:1001C00090912B12019690932B1280932A1282E029
:1001D000A1DFFF91EF91BF91AF919F918F917F919F
:1001E0006F915F914F913F912F910F900FBE0F90A4
:1001F0001F901895882311F0979A0895979808955D
:1002000080E091E115D184E291E112D188E491E19D
:100210000FD18DE691E10CC1CF93DF9300D000D0D8
:10022000CDB7DEB74AE0BE016F5F7F4F90E0D6D218
:1002300085E891E1FDD0CE010196FAD089E991E1FE
:10024000F7D00F900F900F900F90DF91CF910895FE
:10025000CF93DF93CDB7DEB760970FB6F894DEBFCC
:100260000FBECDBF4AE0BE016F5F7F4FB7D28BE9B3
:1002700091E1DED0CE010196DBD082EA91E1D8D0C7
:1002800060960FB6F894DEBF0FBECDBFDF91CF9161
:100290000895CF93DF93EC0185EA91E1C9D0CE01B7
:1002A000C7D08BE691E1DF91CF91C2C0EF92FF9270
:1002B0000F931F93CF93DF938C01EB018FE39CE9A6
:1002C0000197F1F700C0000084D07C0182D0970133
:1002D00022272115310541F49C012227232B61F4AB
:1002E000F801E082888306C02115314029F4F80125
:1002F0001082188281E001C080E0DF91CF911F91D0
:100300000F91FF90EF9008951F920F920FB60F92EA
:1003100011242F938F939F93EF93FF938BB19CB1F5
:100320008871E0913012EF5FEF7120912F12E21788
:1003300039F0E0933012F0E0ED5CFD4E908301C0A7
:1003400082E090912E12892B80932E12FF91EF91D3
:100350009F918F912F910F900FBE0F901F90189526
:100360001F920F920FB60F9211248F939F93EF93CA
:10037000FF939091321280913112981761F0E091C1
:100380003112EF5FEF71E0933112F0E0ED5AFD4E64
:1003900080818CB901C05598FF91EF919F918F9109
:1003A0000F900FBE0F901F9018951092321210925E
:1003B00031121092301210922F1297FF02C022E0D9
:1003C0002BB9907890BD89B988E98AB986E880BD53
:1003D00008959091301280912F129817A9F0909162
:1003E0002F129F5F9F71E92FF0E0ED5CFD4E2081A1
:1003F00080912E1290932F1210922E1290E0982F2F
:100400008827820F911D089580E091E008959091D2
:1004100032129F5F9F71209131129217E1F3E92F01
:10042000F0E0ED5AFD4E808390933212559A089574
:10043000CF93DF93EC018991882311F0E8DFFBCFA4
:10044000DF91CF910895CF93DF93FC018491EF0169
:100450002196882319F0DBDFFE01F8CFDF91CF91E1
:100460000895CF93DF9300D0CDB7DEB7F8DD05E573
:1004700010E0FF24F3942BDE811147C022C08230AC
:1004800009F45DC0843009F460C0813021F48DEA44
:1004900091E1CEDFF12CBE016F5F7F4FCE0102965E
:1004A00005DF882309F470C08A81883009F455C0BB
:1004B00030F3803209F456C08F3F99F588EF91E10F
:1004C000B7DFFF20C1F208DE8823A9F2AA98A99815
:1004D00080E090DE80E090E08017910741F0EFE946
:1004E000FFE03197F1F700C000000196F5CF979A31
:1004F000A99A88EE93E0EFE9FFE03197F1F700C0A9
:1005000000000197C1F7AA9AB6CFA89AFFEF23ED92
:1005100080E3F15020408040E1F700C0000070DE31
:10052000BACF803109F0B7CF80912C1290912D1263
:100530006EDF80912C1290912D128ADEACCF89EC67
:1005400091E176DFFF24F394A6CFE9800E2D10E031
:1005500084EE91E16DDF8E2D03C0802F58DF802F58
:100560005BDE99CFB4DD811196CF80912C129091F2
:100570002D126EDE2FEF83ED90E3215080409040EE
:10058000E1F700C00000EECF8BE092E182DE83CF86
:1005900070D088F09F5790F0B92F9927B751A0F0ED
:1005A000D1F0660F771F881F991F1AF0BA95C9F707
:1005B00012C0B13081F077D0B1E0089574C0672FD8
:1005C000782F8827B85F39F0B93FCCF386957795B7
:1005D0006795B395D9F73EF49095809570956195A0
:1005E0007F4F8F4F9F4F0895E89409C097FB3EF4CB
:1005F00090958095709561957F4F8F4F9F4F992370
:10060000A9F0F92F96E9BB279395F69587957795ED
:100610006795B795F111F8CFFAF4BB0F11F460FFAD
:100620001BC06F5F7F4F8F4F9F4F16C0882311F005
:1006300096E911C0772321F09EE8872F762F05C019
:10064000662371F096E8862F70E060E02AF09A95B4
:10065000660F771F881FDAF7880F9695879597F9A9
:10066000089557FD9058440F551F59F05F3F71F0A2
:100670004795880F97FB991F61F09F3F79F0879509
:100680000895121613061406551FF2CF4695F1DF92
:1006900008C0161617061806991FF1CF8695710522
:1006A000610508940895E894BB2766277727862F6D
:1006B000972F97F908950AD080C071D028F076D08E
:1006C00018F0952309F062C067C0EECFCADFA8F327
:1006D0009923D9F35523C9F3950F50E0551FAA2745
:1006E000EE27FF27BB2700240894679520F4E20F2C
:1006F000F31FB41F0A1E220F331F441FAA1F669543
:10070000A9F7779530F4F30FB41F0A1E121E08F4F0
:100710006395330F441FAA1F221F769599F787957B
:1007200020F4B40F0A1E121E631F440FAA1F221FBB
:10073000331F8695A9F7862F712D602D11249F57A1
:1007400050408AF0E1F088234AF0EE0FFF1FBB1FF4
:10075000661F771F881F91505040A9F79E3F510593
:1007600070F014C0A1CF5F3FECF3983EDCF38695A8
:1007700077956795B795F795E7959F5FC1F7FE2B3E
:10078000880F911D9695879597F9089597F99F671A
:1007900080E870E060E008959FEF80EC0895002409
:1007A0000A941616170618060906089500240A94D6
:1007B00012161306140605060895092E0394000C5C
:1007C00011F4882352F0BB0F40F4BF2B11F460FFEB
:1007D00004C06F5F7F4F8F4F9F4F0895BB274A30F4
:1007E00031F4992322F4BDE2909581959F4F01C089
:1007F000BB27E62FF72F5527AA27880F991FAA1F77
:10080000A41710F0A41B83955051B9F7A05DAA332B
:1008100008F0A95DA193009779F7B111B1931192F6
:10082000862F972F00C0A82FB92FE82FF92F672FF9
:1008300071917723E1F7329704C07C916D937083B7
:0E0840006291AE17BF07C8F30895F894FFCF7A
:10084E000D23232323232323232323232323232380
:10085E00232323232323232323232323232323235A
:10086E0023230A000D232057656C636F6D6520747A
:10087E006F2051534436374C4320536574757020A6
:10088E004D6F646520230A000D2323232323232386
:10089E00232323232323232323232323232323231A
:1008AE00232323232323232323230A0A000D706CDF
:1008BE006561736520656E74657220636F6D6D6121
:1008CE006E643A20000D53484946542D54494D4507
:1008DE0020286D73293A205B005D000D52504D208B
:1008EE005B005D0A004572726F723A20000D7175E1
:1008FE0069636B736869667465722064697361629B
:10090E006C6564202E2E2E0A000D717569636B7353
:10091E0068696674657220656E61626C6564202E0E
:10092E002E2E0A000D736869667474696D652063F6
:10093E0068616E6765640A006C656176696E672032
:10094E007365747570206D6F6465004572726F7299
:10095E00207768696C6520726563656976696E6774
:0A096E0020636F6D6D616E64000080
:00000001FF
