:1000000012C02CC063C02AC029C028C027C026C087
:1000100026C024C023C084C2AFC220C01FC01EC0DF
:100020001DC01CC01BC011241FBECFE5D4E0DEBF25
:10003000CDBF12E1A0E0B1E1E8E4FBE002C0059031
:100040000D92AC38B107D9F722E1ACE8B2E101C0BA
:100050001D92A43EB207E1F710D374C5D1CF1F9211
:100060000F920FB60F9211242F933F934F935F93EC
:100070006F937F938F939F93AF93BF93EF93FF9370
:1000800060919B1270919C1280E090E015D420EC5E
:1000900031EE44EE51E477D4E3D370939E12609333
:1000A0009D1210929C1210929B12FF91EF91BF91A2
:1000B000AF919F918F917F916F915F914F913F9100
:1000C0002F910F900FBE0F901F9018951F920F92B7
:1000D0000FB60F9211248F939F9380919B12909152
:1000E0009C12019690939C1280939B129F918F91EA
:1000F0000F900FBE0F901F9018950F931F93CF93E3
:10010000DF9384B3876084BBA5988A988F9AB89A46
:1001100087E690E056D278948BB780688BBF85B71E
:10012000846085BF85B7886085BF10929C1210924D
:100130009B1210929E1210929D128EB584608EBDFD
:100140001DBC1CBC89B7846089BF979A85B3887F22
:1001500085BB84E690E0EFE3FCE93197F1F700C05E
:1001600000000197C1F785B3866085BBC098C09A2F
:1001700081E090E0D2D491E0811101C090E09093B1
:100180009A1282E090E0C9D480930211C4E0D1E1D8
:100190000CE812E1899190E0C0D4F80181938F01BD
:1001A000F1E1C231DF07B1F7A89AA99AAA9ADF91C3
:1001B000CF911F910F91089583B385FB882780F914
:1001C000089580B382FB882780F9089545B321E024
:1001D00030E0662351F0B90102C0660F771F8A959F
:1001E000E2F7CB018095842308C0B90102C0660FF5
:1001F000771F8A95E2F7CB01842B85BB089595B3D1
:1002000021E030E001C0220F8A95EAF7292725BBBB
:100210000895882311F0979A0895979808959C015E
:100220002C3B84E3380790F5243D90E3390780F5B3
:100230002C3E8CE2380770F5243099E2390760F5DE
:100240002C3185E2380750F5243391E2390740F527
:100250002C348DE1380730F5243699E1390720F543
:100260002C3785E1380710F5243991E1390700F57D
:100270002C3A8DE03807F0F4243C99E03907E0F49B
:1002800081E02C3D3540C8F480E008958DE008956C
:100290008CE008958BE008958AE0089589E0089540
:1002A00088E0089587E0089586E0089585E0089540
:1002B00084E0089583E0089582E0089582E191E169
:1002C000C3D186E391E1C0D18AE591E1BDD18FE749
:1002D00091E1BAC1EF92FF920F931F93CF93DF93F7
:1002E000CDB7DEB72A970FB6F894DEBF0FBECDBFED
:1002F0007C01062F10E04AE0BE016A5F7F4FC80113
:100300000196D4D3F701E00FF11F80814AE0BE01CE
:100310006F5F7F4F90E0CAD387E991E195D1CE011D
:10032000069692D18BEA91E18FD1CE0101968CD1C4
:1003300085EB91E189D18DE791E186D12A960FB6BF
:10034000F894DEBF0FBECDBFDF91CF911F910F910B
:10035000FF90EF900895EF92FF920F931F93CF932A
:10036000DF93CDB7DEB72A970FB6F894DEBF0FBE86
:10037000CDBF8C018AEB91E167D1780100E010E0FC
:100380000F5F1F4F4AE0BE016A5F7F4FC8018ED3E7
:10039000F70181917F014AE0BE016F5F7F4F90E0DE
:1003A00085D38EEC91E150D1CE0106964DD18BEAEA
:1003B00091E14AD1CE01019647D185EB91E144D13B
:1003C000FFEF21EE84E0F15020408040E1F700C0D3
:1003D00000000E301105A1F68DE791E135D12A9686
:1003E0000FB6F894DEBF0FBECDBFDF91CF911F9146
:1003F0000F91FF90EF900895CF93DF93CDB7DEB7C5
:1004000060970FB6F894DEBF0FBECDBF4AE0BE01C5
:100410006F5F7F4F4BD381ED91E116D1CE010196F5
:1004200013D187EB91E110D160960FB6F894DEBF3F
:100430000FBECDBFDF91CF910895CF93DF93EC0135
:1004400088ED91E101D1CE01FFD08DE791E1DF91FF
:10045000CF91FAC0CF93DF9300D000D0CDB7DEB7F5
:100460004AE0BE016F5F7F4F90E020D380EE91E1C4
:10047000EBD0CE010196E8D087EB91E1E5D00F906B
:100480000F900F900F90DF91CF910895AED021E0A3
:10049000803F910509F020E0822F0895AF92BF922E
:1004A000CF92DF92EF92FF920F931F93CF93DF9340
:1004B0007C018B01EA012FEF80E792E02150804020
:1004C0009040E1F700C0000090D05C018ED06C013C
:1004D0008CD0950122272115310561F49C012C292E
:1004E0003D292227232B81F4F701A082F801C08245
:1004F000888308C02115314039F4F7011082F801D2
:100500001082188281E001C080E0DF91CF911F91BD
:100510000F91FF90EF90DF90CF90BF90AF90089534
:100520001F920F920FB60F9211242F938F939F93C8
:10053000EF93FF938BB19CB18871E091A112EF5FB3
:10054000EF712091A012E21739F0E093A112F0E0D0
:10055000EC55FD4E908301C082E090919F12892B53
:1005600080939F12FF91EF919F918F912F910F9008
:100570000FBE0F901F9018951F920F920FB60F92FB
:1005800011248F939F93EF93FF939091A3128091E7
:10059000A212981761F0E091A212EF5FEF71E09361
:1005A000A212F0E0EC53FD4E80818CB901C0559849
:1005B000FF91EF919F918F910F900FBE0F901F9021
:1005C00018951092A3121092A2121092A1121092DA
:1005D000A01297FF02C022E02BB9907890BD89B994
:1005E00088E98AB986E880BD08959091A11280912A
:1005F000A0129817A9F09091A0129F5F9F71E92F08
:10060000F0E0EC55FD4E208180919F129093A01256
:1006100010929F1290E0982F8827820F911D0895C5
:1006200080E091E008959091A3129F5F9F712091C7
:10063000A2129217E1F3E92FF0E0EC53FD4E808314
:100640009093A312559A0895CF93DF93EC0189916B
:10065000882311F0E8DFFBCFDF91CF910895CF938E
:10066000DF93FC018491EF012196882319F0DBDFF1
:10067000FE01F8CFDF91CF910895CF93DF9300D0A3
:100680001F92CDB7DEB739DDDD24D39408EE13E039
:10069000FDDE882309F499C0D0920311A9980EDEDB
:1006A00080910311882309F48FC0AE014F5F5F4F23
:1006B000BE016E5F7F4FCE010396F0DE882309F402
:1006C0007FC08B81803109F447C0A0F4823029F1CA
:1006D00048F4813029F78DEE91E1B6DF10929A123D
:1006E00060E021C0843019F18830D1F68CE892E1C5
:1006F00032DED6CF803409F456C020F4803209F4BB
:100700004AC0CECF803809F457C08F3F49F689E5FB
:1007100092E19ADF10920311C3CF89E092E194DF56
:10072000D0929A1261E081E090E0FFD1B9CF8A8146
:1007300090E06981FC01E457FD4E6083FC01EC5FB1
:10074000FE4E808190E0F1D184E292E17DDF6A810A
:100750008CE892E1BFDDA4CF80919D1290919E1212
:100760004BDE9ECF80919D1290919E1245DE2FEF21
:1007700089E698E1215080409040E1F700C00000F8
:10078000AE014F5F5F4FBE016E5F7F4FCE0103969C
:1007900085DE811104C010DD882321F381CF8B8198
:1007A0008032C9F77DCF6A816093021182E090E0C8
:1007B000BCD18EE392E148DF809102114BDE70CF15
:1007C0008DE692E13ADE6CCFA99A80919A12882345
:1007D00099F0F7DC882381F020919D1230919E12D0
:1007E00040910211409FC001419F900D112482173A
:1007F000930738F001C0A89860919A1280E0E6DC77
:1008000047CFA89A80E005DDE12CF12C80919D1264
:1008100090919E1204DDE82FF0E0E457FD4E8081B8
:1008200090E0E816F90650F4EFE9FFE03197F1F7B0
:1008300000C00000FFEFEF1AFF0AE8CF979A80E0B0
:1008400090E020910011309101118217930798F6E2
:10085000EFE9FFE03197F1F700C000000196F1CF1A
:1008600070D088F09F5790F0B92F9927B751A0F01A
:10087000D1F0660F771F881F991F1AF0BA95C9F734
:1008800012C0B13081F077D0B1E0089574C0672F05
:10089000782F8827B85F39F0B93FCCF386957795E4
:1008A0006795B395D9F73EF49095809570956195CD
:1008B0007F4F8F4F9F4F0895E89409C097FB3EF4F8
:1008C00090958095709561957F4F8F4F9F4F99239D
:1008D000A9F0F92F96E9BB279395F695879577951B
:1008E0006795B795F111F8CFFAF4BB0F11F460FFDB
:1008F0001BC06F5F7F4F8F4F9F4F16C0882311F033
:1009000096E911C0772321F09EE8872F762F05C046
:10091000662371F096E8862F70E060E02AF09A95E1
:10092000660F771F881FDAF7880F9695879597F9D6
:10093000089557FD9058440F551F59F05F3F71F0CF
:100940004795880F97FB991F61F09F3F79F0879536
:100950000895121613061406551FF2CF4695F1DFBF
:1009600008C0161617061806991FF1CF869571054F
:10097000610508940895E894BB2766277727862F9A
:10098000972F97F908950AD080C071D028F076D0BB
:1009900018F0952309F062C067C0EECFCADFA8F354
:1009A0009923D9F35523C9F3950F50E0551FAA2772
:1009B000EE27FF27BB2700240894679520F4E20F59
:1009C000F31FB41F0A1E220F331F441FAA1F669570
:1009D000A9F7779530F4F30FB41F0A1E121E08F41E
:1009E0006395330F441FAA1F221F769599F78795A9
:1009F00020F4B40F0A1E121E631F440FAA1F221FE9
:100A0000331F8695A9F7862F712D602D11249F57CE
:100A100050408AF0E1F088234AF0EE0FFF1FBB1F21
:100A2000661F771F881F91505040A9F79E3F5105C0
:100A300070F014C0A1CF5F3FECF3983EDCF38695D5
:100A400077956795B795F795E7959F5FC1F7FE2B6B
:100A5000880F911D9695879597F9089597F99F6747
:100A600080E870E060E008959FEF80EC0895002436
:100A70000A941616170618060906089500240A9403
:100A800012161306140605060895092E0394000C89
:100A900011F4882352F0BB0F40F4BF2B11F460FF18
:100AA00004C06F5F7F4F8F4F9F4F0895BB274A3021
:100AB00031F4992322F4BDE2909581959F4F01C0B6
:100AC000BB27E62FF72F5527AA27880F991FAA1FA4
:100AD000A41710F0A41B83955051B9F7A05DAA3359
:100AE00008F0A95DA193009779F7B111B193119224
:100AF000862F972F00C0A82FB92FE82FF92F672F27
:100B000071917723E1F7329704C07C916D937083E4
:100B10006291AE17BF07C8F30895E199FECF9FBB5E
:100B20008EBBE09A99278DB30895262FE199FECFC9
:100B30009FBB8EBB2DBB0FB6F894E29AE19A0FBE15
:080B400001960895F894FFCF1F
:100B4800E8030301030405060708090A0B0C0D0E48
:100B58000F100D232323232323232323232323239A
:100B6800232323232323232323232323232323234D
:100B7800232323230A000D232057656C636F6D65BB
:100B880020746F2051534436374C43205365747595
:100B980070204D6F646520230A000D23232323232F
:100BA800232323232323232323232323232323230D
:100BB8002323232323232323232323230A0A000D68
:100BC800706C6561736520656E74657220636F6D06
:100BD8006D616E643A0A000D53484946542D5449D4
:100BE8004D4520286D73293A205B003030307270F3
:100BF8006D202F20006D735D0A000D53484946543F
:100C08002D54494D4520286D73293A200A000D5B63
:100C1800000D52504D205B004572726F723A2000F1
:100C28000D5468726573686F6C64205B000D717594
:100C380069636B736869667465722064697361625D
:100C48006C6564202E2E2E0A000D717569636B7316
:100C580068696674657220656E61626C6564202ED1
:100C68002E2E0A000D206368616E67656420736824
:100C7800696674696E672074696D653A0A000D20AB
:100C88006368616E676564206C6F7765722074684D
:100C9800726573686F6C640A000D6C656176696EC5
:100CA80067207365747570206D6F64650045727296
:100CB8006F72207768696C6520726563656976690B
:0C0CC8006E6720636F6D6D616E6400004C
:00000001FF
