:1000000012C02CC0CAC02AC029C028C027C026C020
:100010008BC024C023C03DC168C120C01FC01EC00A
:100020001DC01CC01BC011241FBECFE5D4E0DEBF25
:10003000CDBF11E1A0E0B1E1E8E3F7E002C0059037
:100040000D92A63AB107D9F721E1A6EAB1E101C0C4
:100050001D92AF3EB207E1F7C9D16CC3D1CF84B3D3
:10006000876084BBA5988A988F9AB89A87E690E0B3
:1000700061D178948BB780688BBF85B7846085BF6A
:1000800085B7886085BF1092A7111092A6111092B3
:10009000A9111092A8118EB584608EBD1DBC1CBC28
:1000A00089B7846089BF979A85B3887F85BB84E6CA
:1000B00090E0EFE3FCE93197F1F700C00000019711
:1000C000C1F785B3866085BBC098C09A089583B395
:1000D00085FB882780F9089580B382FB882780F903
:1000E000089545B321E030E0662351F0B90102C024
:1000F000660F771F8A95E2F7CB018095842308C0AD
:10010000B90102C0660F771F8A95E2F7CB01842BF5
:1001100085BB089595B321E030E001C0220F8A9598
:10012000EAF7292725BB08951F920F920FB60F9269
:1001300011242F933F934F935F936F937F938F93EC
:100140009F93AF93BF93EF93FF9381E0E3DF6091C1
:10015000A6117091A71180E090E0BBD120EC31EEA8
:1001600044EE51E41DD289D17093A9116093A81176
:100170001092A7111092A611FF91EF91BF91AF912C
:100180009F918F917F916F915F914F913F912F91AF
:100190000F900FBE0F901F9018951F920F920FB6E1
:1001A0000F9211242F933F934F935F936F937F93FD
:1001B0008F939F93AF93BF93EF93FF938091A6117B
:1001C0009091A71101969093A7118093A61182E0B8
:1001D000A1DFFF91EF91BF91AF919F918F917F919F
:1001E0006F915F914F913F912F910F900FBE0F90A4
:1001F0001F901895882311F0979A0895979808955D
:1002000080E091E1DAD084E291E1D7D088E491E115
:10021000D4D08DE691E1D1C0CF93DF9300D000D050
:10022000CDB7DEB74AE0BE016F5F7F4F90E04BD2A3
:1002300085E891E1C2D0CE010196BFD089E991E174
:10024000BCD00F900F900F900F90DF91CF91089539
:10025000CF93DF93CDB7DEB760970FB6F894DEBFCC
:100260000FBECDBF4AE0BE016F5F7F4F2CD28BE93E
:1002700091E1A3D0CE010196A0D082EA91E19DD078
:1002800060960FB6F894DEBF0FBECDBFDF91CF9161
:1002900008951F920F920FB60F9211242F938F93F0
:1002A0009F93EF93FF938BB19CB18871E091AC1158
:1002B000EF5FEF712091AB11E21739F0E093AC11D1
:1002C000F0E0E155FE4E908301C082E09091AA11CA
:1002D000892B8093AA11FF91EF919F918F912F917C
:1002E0000F900FBE0F901F9018951F920F920FB690
:1002F0000F9211248F939F93EF93FF939091AE11E0
:100300008091AD11981761F0E091AD11EF5FEF7141
:10031000E093AD11F0E0E153FE4E80818CB901C055
:100320005598FF91EF919F918F910F900FBE0F9075
:100330001F9018951092AE111092AD111092AC1141
:100340001092AB1197FF02C022E02BB9907890BDBC
:1003500089B988E98AB986E880BD08959091AC1181
:100360008091AB119817A9F09091AB119F5F9F718D
:10037000E92FF0E0E155FE4E20818091AA11909383
:10038000AB111092AA1190E0982F8827820F911D2F
:10039000089580E091E008959091AE119F5F9F7164
:1003A0002091AD119217E1F3E92FF0E0E153FE4EF9
:1003B00080839093AE11559A0895CF93DF93EC010B
:1003C0008991882311F0E8DFFBCFDF91CF91089569
:1003D000CF93DF93FC018491EF012196882319F0DC
:1003E000DBDFFE01F8CFDF91CF91089538DE6FDEBD
:1003F00081111FC071DE8823D1F3AA98A99880E0EB
:10040000F9DE85E590E0EFE9FFE03197F1F700C014
:1004100000000197C1F7979AA99A88EE93E0EFE957
:10042000FFE03197F1F700C000000197C1F7AA9AE9
:10043000DECFA89AFFEF23ED80E3F150204080400B
:10044000E1F700C00000DCDE9FEFE3EDF0E3915048
:10045000E040F040E1F700C0000039DE8823E9F316
:100460008091A8119091A911F3DE2FEF89E698E110
:10047000215080409040E1F7EECF70D088F09F5738
:1004800090F0B92F9927B751A0F0D1F0660F771FE0
:10049000881F991F1AF0BA95C9F712C0B13081F0C0
:1004A00077D0B1E0089574C0672F782F8827B85FA0
:1004B00039F0B93FCCF3869577956795B395D9F721
:1004C0003EF490958095709561957F4F8F4F9F4F2B
:1004D0000895E89409C097FB3EF490958095709537
:1004E00061957F4F8F4F9F4F9923A9F0F92F96E980
:1004F000BB279395F695879577956795B795F111F5
:10050000F8CFFAF4BB0F11F460FF1BC06F5F7F4F91
:100510008F4F9F4F16C0882311F096E911C07723A3
:1005200021F09EE8872F762F05C0662371F096E8AC
:10053000862F70E060E02AF09A95660F771F881F7B
:10054000DAF7880F9695879597F9089557FD905893
:10055000440F551F59F05F3F71F04795880F97FB87
:10056000991F61F09F3F79F0879508951216130641
:100570001406551FF2CF4695F1DF08C01616170670
:100580001806991FF1CF86957105610508940895A5
:10059000E894BB2766277727862F972F97F908952A
:1005A0000AD080C071D028F076D018F0952309F0D9
:1005B00062C067C0EECFCADFA8F39923D9F35523F1
:1005C000C9F3950F50E0551FAA27EE27FF27BB2739
:1005D00000240894679520F4E20FF31FB41F0A1E4D
:1005E000220F331F441FAA1F6695A9F7779530F491
:1005F000F30FB41F0A1E121E08F46395330F441F35
:10060000AA1F221F769599F7879520F4B40F0A1E2A
:10061000121E631F440FAA1F221F331F8695A9F7BE
:10062000862F712D602D11249F5750408AF0E1F0E4
:1006300088234AF0EE0FFF1FBB1F661F771F881F1E
:1006400091505040A9F79E3F510570F014C0A1CFC2
:100650005F3FECF3983EDCF3869577956795B79509
:10066000F795E7959F5FC1F7FE2B880F911D969533
:10067000879597F9089597F99F6780E870E060E0A3
:1006800008959FEF80EC089500240A94161617062B
:1006900018060906089500240A9412161306140673
:1006A00005060895092E0394000C11F4882352F0D6
:1006B000BB0F40F4BF2B11F460FF04C06F5F7F4F8E
:1006C0008F4F9F4F0895BB274A3031F4992322F46E
:1006D000BDE2909581959F4F01C0BB27E62FF72F74
:1006E0005527AA27880F991FAA1FA41710F0A41B2B
:1006F00083955051B9F7A05DAA3308F0A95DA19385
:10070000009779F7B111B1931192862F972F00C0FE
:10071000A82FB92FE82FF92F672F71917723E1F7D1
:10072000329704C07C916D9370836291AE17BF07BE
:08073000C8F30895F894FFCF0F
:100738000D23232323232323232323232323232397
:100748002323232323232323232323232323232371
:1007580023230A000D232057656C636F6D65207491
:100768006F2051534436374C4320536574757020BD
:100778004D6F646520230A000D232323232323239D
:100788002323232323232323232323232323232331
:10079800232323232323232323230A0A000D706CF6
:1007A8006561736520656E74657220636F6D6D6138
:1007B8006E643A20000D53484946542D54494D451E
:1007C80020286D73293A205B005D000D52504D20A2
:0607D8005B005D0A000059
:00000001FF
