:1000000012C02CC053C02AC029C028C027C026C097
:1000100025C025C023C008C133C120C01FC01EC0D9
:100020001DC01CC01BC011241FBECFE5D4E0DEBF25
:10003000CDBF11E1A0E0B1E1E0E5F4E002C0059040
:100040000D92AE38B107D9F721E1AEE8B1E101C0B8
:100050001D92A73DB207E1F794D1F8C1D1CF1F920D
:100060000F920FB60F9211245F936F937F938F932C
:100070009F93AF93BF9380918E1190918F116CE4F9
:100080007EE099D1709391116093901110928F112D
:1000900010928E11BF91AF919F918F917F916F912F
:1000A0005F910F900FBE0F901F9018951F920F92A7
:1000B0000FB60F9211248F939F9380918E11909180
:1000C0008F11019690938F1180938E119F918F9134
:1000D0000F900FBE0F901F90189584B3876084BB5C
:1000E000A5988A988F9AB89A87E690E0EED078948F
:1000F0008BB780688BBF85B7846085BF85B7886004
:1001000085BF10928F1110928E1110929111109242
:10011000901183B7856083BF12BE89B7816089BFA4
:10012000979A85B3887F85BB84E690E0EFE3FCE98E
:100130003197F1F700C000000197C1F785B38660E1
:1001400085BBC098C09A089583B385FB882780F942
:10015000089580B382FB882780F9089545B321E094
:1001600030E0662351F0B90102C0660F771F8A950F
:10017000E2F7CB018095842308C0B90102C0660F65
:10018000771F8A95E2F7CB01842B85BB08958823DE
:1001900011F0979A0895979808951F93CF93DF933E
:1001A00000D000D0CDB7DEB7182F80E091E1D0D0DD
:1001B00084E291E1CDD088E491E1CAD04AE0BE0169
:1001C0006F5F7F4F812F90E00AD18DE691E1C0D023
:1001D000CE010196BDD081E891E1BAD00F900F9089
:1001E0000F900F90DF91CF911F910895CF93DF93E0
:1001F00000D000D000D0CDB7DEB74AE0BE016F5FBF
:100200007F4FEDD083E891E1A3D0CE010196A0D03D
:100210008AE891E19DD026960FB6F894DEBF0FBE16
:10022000CDBFDF91CF9108951F920F920FB60F921D
:1002300011242F938F939F93EF93FF938BB19CB1D6
:100240008871E0919411EF5FEF7120919311E217A3
:1002500039F0E0939411F0E0E956FE4E908301C02E
:1002600082E090919211892B80939211FF91EF91EE
:100270009F918F912F910F900FBE0F901F90189507
:100280001F920F920FB60F9211248F939F93EF93AB
:10029000FF939091961180919511981761F0E091DC
:1002A0009511EF5FEF71E0939511F0E0E954FE4E88
:1002B00080818CB901C05598FF91EF919F918F91EA
:1002C0000F900FBE0F901F901895109296111092DC
:1002D0009511109294111092931197FF02C022E091
:1002E0002BB9907890BD89B988E98AB986E880BD34
:1002F000089590919411809193119817A9F090917D
:1003000093119F5F9F71E92FF0E0E956FE4E208127
:1003100080919211909393111092921190E0982FE6
:100320008827820F911D089580E091E008959091B3
:1003300096119F5F9F71209195119217E1F3E92F1C
:10034000F0E0E954FE4E808390939611559A0895FB
:10035000CF93DF93EC018991882311F0E8DFFBCF85
:10036000DF91CF910895CF93DF93FC018491EF014A
:100370002196882319F0DBDFFE01F8CFDF91CF91C2
:100380000895ABDEE1DE81110FC080919011909154
:1003900091112CDF2FEF81EE94E0215080409040AE
:1003A000E1F700C00000EECFA99885E5F6DECCDECF
:1003B0008823E9F3FACFAA1BBB1B51E107C0AA1F90
:1003C000BB1FA617B70710F0A61BB70B881F991FF6
:1003D0005A95A9F780959095BC01CD010895BB274A
:1003E0004A3031F4992322F4BDE2909581959F4FD4
:1003F00001C0BB27E62FF72F5527AA27880F991F83
:10040000AA1FA41710F0A41B83955051B9F7A05D43
:10041000AA3308F0A95DA193009779F7B111B193C0
:100420001192862F972F00C0A82FB92FE82FF92FF0
:10043000672F71917723E1F7329704C07C916D9318
:1004400070836291AE17BF07C8F30895F894FFCF89
:100450000D23232323232323232323232323232382
:10046000232323232323232323232323232323235C
:1004700023230A000D232057656C636F6D6520747C
:100480006F2051534436374C4320536574757020A8
:100490004D6F646520230A000D2323232323232388
:1004A000232323232323232323232323232323231C
:1004B000232323232323232323230A0A000D534822
:1004C0004946542D54494D4520286D73293A205BE7
:0E04D000005D000D52504D205B005D0A0000E3
:00000001FF
